:10000000C0040010A90E0000110F0000110F000025
:10001000110F0000110F0000110F00000000000080
:10002000000000000000000000000000110F0000B0
:10003000110F000000000000110F00002914000043
:10004000110F0000110F0000110F0000110F000030
:10005000110F0000110F0000110F0000110F000020
:10006000110F0000110F0000110F0000110F000010
:10007000110F0000110F0000110F0000ED00000033
:10008000110F0000110F000009050000110F000002
:10009000110F0000110F0000110F0000110F0000E0
:1000A000110F0000110F0000110F0000110F0000D0
:1000B000110F0000110F0000110F0000110F0000C0
:1000C00080B582B000AF021CFB1D1A70064BFA1DF2
:1000D0001278111C1F220A400121081C9040021CAA
:1000E0001A60BD4602B080BD00E100E080B582B07C
:1000F00000AF764B00221A608023DB055A68FB1D97
:100100001A70FB1D1B78083B502B00D9D1E09A00D8
:100110006F4BD3181B689F466E4B00221A608023DA
:10012000DA056C4B1B686C49C95CC9B291605A1CFA
:10013000684B1A608023DB0528229A61C1E0674B77
:1001400000221A608023DA05624B1B686249C95C91
:10015000C9B291605A1C5F4B1A608023DB052822CC
:100160009A61AEE05E4B1B68012B07D18023DB0553
:1001700010221A605B4B07221A600AE08023DA051E
:10018000544B1B685449C95CC9B291605A1C514B0D
:100190001A608023DB0508229A6192E04D4B1A68B1
:1001A0004F4B1B689A420BD28023DA05494B1B68E0
:1001B0004949C95CC9B291605A1C464B1A600FE0AC
:1001C000494B1B68002B04D08023DB0520221A60DA
:1001D00006E08023DB0510221A60424B0C221A60D5
:1001E0008023DB0508229A616BE08023DB05102267
:1001F0001A603C4B09221A608023DB0508229A61B1
:100200005FE0364B1B685A1C374B1B689A4204D27E
:100210008023DB0504221A6003E08023DB0504222F
:100220009A618023DB0508229A614AE02B4B1B6808
:100230008022D2059268D1B22C4AD1545A1C274B45
:100240001A60264B1B685A1C274B1B689A4204D223
:100250008023DB0504221A6003E08023DB050422EF
:100260009A618023DB0508229A612AE01B4B1B68F8
:100270008022D2059268D1B21C4AD1545A1C174B25
:100280001A60184B0C221A608023DB0510221A60BA
:100290008023DB0508229A6113E08023DB0510220E
:1002A0001A60104B08221A608023DB0508229A612D
:1002B00007E00C4B0A221A608023DB0508229A61B2
:1002C000C046C046BD4602B080BDC046100000100A
:1002D000E41400001C00001064000010180000105E
:1002E000A4000010080000102000001024000010DE
:1002F00080B582B000AF7860234B234A5268022158
:100300000A435A60204A20498023CB5820211943B0
:100310008023D1501D4B1D4A126B3F218A431A6323
:100320001A4B1A4A126B01210A431A63174B174AD8
:10033000526B3F218A435A63144B144A526B01217A
:100340000A435A638023DB056C229A618023DB0514
:10035000C02252005A618023DB05C02252001A617C
:100360007B68022B03D18023DB05A022DA600F20FB
:10037000FFF7A6FE8023DB0540221A600123181C2C
:10038000BD4602B080BDC04600800440004004402D
:1003900080B500AF144B00221A60144B00221A6083
:1003A0008023DB0520221A60114B06221A600DE023
:1003B000104B1A68104B9A4203D90D4B0B221A604E
:1003C00008E00C4B1B685A1C0A4B1A60084B1B6850
:1003D000062BEDD08023DB0520229A61044B1B689D
:1003E000181CBD4680BDC046180000101C0000103F
:1003F0000800001010000010FEFFFF0080B582B062
:1004000000AF021CFB1D1A70064BFA1D1278111C5E
:100410001F220A400121081C9040021C1A60BD46A0
:1004200002B080BD00E100E0B0B582B000AF021CB8
:100430003960FB1D1A70FB1D1B787F2B32D93049A8
:10044000FB1D1B781A1C0F231340083B98082C4AED
:10045000FB1D1B781C1C0F232340083B9B08063305
:100460009B00D3185B68FA1D1278141C03222240EB
:10047000D200FF24251C95402A1CD2431A403B6819
:10048000DC00FF231C40FB1D1B781D1C03232B409D
:10049000DB00251C9D402B1C1A43831D9B00CB18A1
:1004A0005A6029E0174BFA1D127852B2920815498A
:1004B000F81D007840B28008C03080004158F81D17
:1004C0000078041C03202040C000FF24251C854028
:1004D000281CC04308403968CC00FF210C40F91D9E
:1004E00009780D1C03212940C900251C8D40291CB9
:1004F0000143C0329200D150BD4602B0B0BDC046EB
:1005000000ED00E000E100E080B500AF384B0122D3
:100510001A60384B1B680D2B15D1374B02221A601D
:10052000364B0E221A60364BD0221A70344B3B22C7
:100530005A70334BD1229A708023DB0520221A6037
:10054000304B06221A602F4B1B68062B4AD0294BD2
:100550001B68062B46D18023DB0520229A612A4B9B
:100560001B78DAB2294B5A70274B5B78DAB2274BEB
:100570001A70254B9B78DAB2244BDA70224BDB7869
:10058000DAB2224B9A70204B1B79DAB21F4B5A71A8
:100590001D4B5B79DAB21D4B1A711B4B1B7ADAB219
:1005A0001B4B5A70184B5B7ADAB2194B1A70164B08
:1005B0009B7ADAB2164BDA70134BDB7ADAB2144B51
:1005C0009A70114B1B7BDAB2114B5A710E4B5B7B4D
:1005D000DAB20F4B1A718023DB0520221A60094B17
:1005E00006221A60074B1A68024B1A60BD4680BD8E
:1005F0000040014000000010A40000102000001086
:10060000640000100800001024000010A800001072
:10061000B000001098B500AF0F200021FFF704FFD5
:1006200080239B00181C012100F0B6FB0D4C0E4BE3
:100630001B68181C0D4900F005FF031C013BE3601B
:10064000084B64229A61074B03225A61054B012231
:100650005A6012200321FFF7E7FE1220FFF7CEFEBB
:10066000BD4698BD004001400400001040420F000C
:1006700080B500AF114B03221A60114B00221A60A3
:10068000104BD0221A700F4B6B225A700D4B002268
:100690009A70FFF77DFE094B03221A60084B002277
:1006A0001A60084BD0221A70064B37225A70054B3D
:1006B00002229A70FFF76CFEBD4680BDA4000010B8
:1006C000200000106400001080B582B000AF021C52
:1006D000FB1D1A700B4B03221A600B4B00221A6091
:1006E0000A4BD0221A70094B1A225A70FB1D1A7835
:1006F00007231340DAB2054B9A70FFF749FEBD4657
:1007000002B080BDA40000102000001064000010A2
:1007100080B582B000AF021CFB1D1A700C4B032287
:100720001A600C4B00221A600B4BD0221A700A4B35
:100730001B225A70FB1D1A7803231340DBB2DB0027
:10074000DAB2054B9A70FFF723FEBD4602B080BDBA
:10075000A4000010200000106400001080B582B0DA
:1007600000AF0A1CFB1D011C1970BB1D1A70114B38
:1007700003221A60104B00221A60104BD0221A700C
:100780000E4B1C225A70FB1D1A7803231340DB000A
:10079000DAB2BB1D1B78191C07230B40DBB21343D5
:1007A000DBB2DAB2054B9A70FFF7F2FDBD4602B03C
:1007B00080BDC046A400001020000010640000109E
:1007C00080B58EB000AF786039603B1C17330022D3
:1007D0001A7000233B610023FB600023FB620123AE
:1007E000BB6200237B6200233B620023FB61514B11
:1007F000BB6100F0FDFA031CBB60BB681B09BB605A
:1008000001237B6359E000233B634BE07B6BBA68B9
:100810005A43796B3B6BCB18101C191C00F012FE6D
:10082000031CFB60F868396800F00CFE031CFB62D7
:10083000FB68181C396800F049FE0B1C1A1C3B6849
:100840005B089A4202D9FB6A0133FB62FB6A022B06
:1008500025D9FA6A384B9A4221D8F868F96A00F02B
:10086000F1FD031C3B613A693B689A4204D83A683F
:100870003B69D31AFB6103E03A693B68D31AFB6119
:10088000FA69BB699A420AD27B6BBB623B6B7B62A3
:10089000FB6A3B62FB69BB61FB69002B06D03B6BCB
:1008A00001333B633B6B0F2BB0D900E0C046FB69C3
:1008B000002B06D07B6B01337B637B6B0F2BA2D9A4
:1008C00000E0C0463A68131C5B009B18181C6421AA
:1008D00000F0B8FD031C1A1CBB699A4222D97B6840
:1008E000DB6880221A437B68DA603B6A1A0AFF23BE
:1008F0001A407B685A603A6AFF231A407B681A6084
:100900007B68DA687F231A407B68DA60BB6A1A0169
:10091000FF231A40796A0F230B401A43FF231A4022
:100920007B689A623B1C17331B78181CBD460EB0BF
:1009300080BDC046A0860100FFFF000080B582B0E8
:1009400000AF021CFB1D1A70A420012100F070FAF8
:10095000A820012100F06CFAA020012100F068FA23
:10096000A020012100F086FA01204021002200F0A1
:10097000E1F901208021012200F0DCF90120202191
:10098000012200F0D7F980235B01181C012100F03F
:1009900003FA124B00221A63114A98230121D15005
:1009A0000E4B8B22DA600D4AE1235B02101C191CEE
:1009B000FFF706FF094B07229A60084BFA1D1278D1
:1009C0001A65064B0A225A65044B3722DA64034B38
:1009D00080221A63BD4602B080BDC0460080004040
:1009E0000080044080B582B000AF021CFB1D1A706D
:1009F000094B094AD26830210A43DA60C046064BE7
:100A00005A6940231340FAD0034BFA1D12781A603A
:100A1000BD4602B080BDC0460080004080B582B0B7
:100A200000AFFA239B007B600F4B5A6901231340F0
:100A300009D1012000F0E2FC7B68013B7B607B6810
:100A4000002BF1D100E0C0467B68002B05D0064B9F
:100A50001B681A1CFF23134001E001235B42181C92
:100A6000BD4602B080BDC0460080004080B582B067
:100A700000AF00237B605E4B5B6A5A090F23134073
:100A80000F2B34D89A005B4BD3181B689F4600236A
:100A90007B602CE0584B7B6029E0584B7B6026E064
:100AA000574B7B6023E0574B7B6020E0564B7B60CD
:100AB0001DE0564B7B601AE0554B7B6017E0554BB1
:100AC0007B6014E0544B7B6011E0544B7B600EE084
:100AD000534B7B600BE0534B7B6008E0524B7B60D9
:100AE00005E0524B7B6002E0514B7B60C046404BBF
:100AF0005A6A1F2313405B0002337868191C00F008
:100B0000A1FC031C7B603A4B1A6F03231340012B9B
:100B100009D004D3022B1DD0032B1FD058E0454B26
:100B2000454A1A6054E0324B1A6C03231340012BE0
:100B300007D002D3032B48D807E03E4B3E4A1A6049
:100B400007E03C4B3C4A1A6003E03A4B00221A6033
:100B5000C0463AE0374B7A681A6039E0244B1A6C89
:100B600003231340012B17D002D3032B2FD827E0E8
:100B70001F4B9A68C0235B00134003D02D4B2E4AB5
:100B80001A6021E01A4B9A681F23134001332A4A46
:100B90005A43284B1A6017E0154B9A68C0235B0034
:100BA000134003D0234B244A1A600DE0104B9A687F
:100BB0001F2313400133204A5A431E4B1A6003E09F
:100BC0001C4B00221A60C04601E0C04600E0C0464F
:100BD000184B1A68064B9B6F101C191C00F032FC56
:100BE000031C1A1C134B1A60BD4602B080BDC046E0
:100BF000008004402816000020A1070000350C00EA
:100C0000E0C81000C05C1500006A180040771B00A7
:100C100080841E00C0912100009F240040AC27006A
:100C2000E032290020402C00604D2F0000D430001D
:100C300040E1330004000010001BB70080B582B013
:100C400000AF244B00221A64224B01225A64214B2C
:100C500000225A641F4B01225A64C0461D4B5A6C35
:100C600001231340FAD01B4B23229A60194A1949D9
:100C70008E239B00CB588021181C8843011C8E2397
:100C80009B00D150C046134BDA6801231340FAD0C1
:100C9000104B03221A670F4B01225A670D4B00229B
:100CA0005A670C4B01225A67C0460A4B5A6F012300
:100CB0001340FAD0074B01229A67064A0549802360
:100CC000CB588021490219438023D150BD4602B040
:100CD00080BDC0460080044080B584B000AF021CD7
:100CE000FB1D1A700023FB60FB1D1B78012B0CD031
:100CF00002DC002B05D011E0022B09D0032B0AD017
:100D00000CE0A023DB05FB6009E0074BFB6006E07D
:100D1000064BFB6003E0064BFB6000E0C046FB684F
:100D2000181CBD4604B080BD0000015000000250F8
:100D30000000035080B584B000AF3960FB1D011C7A
:100D40001970BB1D1A70FB1D1B78181CFFF7C4FF20
:100D5000031CFB60BB1D1B78002B0DD1FA688023A0
:100D60001B02D3583A68D24313401B05190DFA6889
:100D700080231B02D1500CE0FA6880231B02D2585A
:100D80003B681B051B0D111C1943FA6880231B02CD
:100D9000D150BD4604B080BD80B582B000AF786050
:100DA0000A1CFB1C1A70FB1C1B78002B0BD10E4A73
:100DB0000D498023CB587968C94319400B4B194022
:100DC0008023D1500DE0FB1C1B78012B09D1064A72
:100DD00005498023C9587868044B03401943802390
:100DE000D150BD4602B080BD00800440FFBF050069
:100DF00080B582B000AF00237B600B4A9823D258A5
:100E0000FF2313407B607B68002B01D1002306E0A9
:100E1000064B1B68181C796800F014FB031C181C97
:100E2000BD4602B080BDC0460080044004000010F2
:100E300080B584B000AF78600A1CFB1C1A707B6818
:100E40000B4A9B181B68FB60FB6807229343FB60FF
:100E5000FB1C1A7807231340FA681343FB607B6876
:100E6000034A9B18FA681A60BD4604B080BDC046AC
:100E70000040044080B584B000AF78600A1CFB1CC1
:100E80001A707B68074A9B181B68FB60FB68182276
:100E90009343FB607B68034A9B18FA681A60BD465F
:100EA00004B080BD0040044080B582B000AF134B59
:100EB0007B60134B3B6009E07B681A683B681A60F3
:100EC0003B6804333B607B6804337B603A680D4BBE
:100ED0009A42F1D30C4B3B6005E03B6800221A605C
:100EE0003B6804333B603A68084B9A42F5D3FFF7FE
:100EF000A5FE00F09DF8BD4602B080BD681600005A
:100F0000000000100800001008000010C0000010D1
:100F100080B500AFFEE7C04680B586B000AF021CCA
:100F20003960FB1D1A7000233B61FB1D1B781B09F8
:100F3000DBB2FB6000237B6112E0FFF76FFD031C57
:100F4000BB60BB68013302D101235B422BE07B69AC
:100F50003A68D318BA68D2B21A707B6901337B61E0
:100F60007A69FB689A42E8DB00237B6109E07B69D0
:100F70003A68D3181B783A69D3183B617B6901330F
:100F80007B61FB685A1E7B699A42F0DC7B693A6898
:100F9000D3181B781A1C3969FF230B409A4201D0E1
:100FA000FE2300E00023181CBD4606B080BDC046ED
:100FB00080B584B000AF021C3960FB1D1A70FB1DA8
:100FC0001A780F231340BB600023FB6009E0FB6825
:100FD0003A68D3181B78181CFFF704FDFB6801332F
:100FE000FB60FA68BB689A42F1DB0023181CBD461F
:100FF00004B080BD80B584B000AF0A1CFB1D011C8D
:101000001970BB1D1A700023FB6007E0BB1D1B7825
:10101000181CFFF7E7FCFB680133FB60FB1D1A7827
:101020000F231A40FB689A42F0DCBD4604B080BD35
:1010300080B58AB000AF3B1C2733E0221A703B1CFE
:10104000103300221A60043300221A600433002295
:101050001A60043300221A6004333B1C00221A6019
:10106000043300221A60043300221A600433002281
:101070001A600433FA239B00181C00F08DF901203C
:10108000FFF736F996235B00181C00F0A5F9FFF76F
:10109000EFFA0620FFF718FB0020FFF739FB0020CE
:1010A0000021FFF75BFBFFF7B5FA3B1C27331B78EA
:1010B000181CFFF743FCFFE7C046604B5A69012349
:1010C0001340FAD0FFF7AAFC021C3B1C27331B7805
:1010D0009A4200D0AEE0FFF7A1FC021C3B1C263375
:1010E0001A703B1C26331A783B1C1033101C191C39
:1010F000FFF712FF031C3B623B6A013300D19BE008
:101100003B6AFE2B07D13B1C26331B78181CFE21A3
:10111000FFF770FF91E03B1C10331B78232B0ED0A0
:1011200002DC012B05D07CE0242B26D0252B42D0DD
:1011300077E03B1C3A1C273212781A7071E0404B62
:101140005A783B1C1A703E4B1A783B1C5A703C4B29
:10115000DA783B1C9A703A4B9A783B1CDA70384B21
:101160005A793B1C1A71364B1A793B1C5A71354B14
:101170001B68DAB23B1C9A7153E0334B5A783B1C24
:101180001A70314B1A783B1C5A702F4BDA783B1C83
:101190009A702D4B9A783B1CDA702B4B5A793B1C7A
:1011A0001A71294B1A793B1C5A71264B1B68DAB20B
:1011B0003B1C9A7135E0224B5A783B1C1A70204B2D
:1011C0001A783B1C5A701E4BDA783B1C9A701C4BE9
:1011D0009A783B1CDA701A4B5A793B1C1A71184BDF
:1011E0001A793B1C5A71184B5A783B1C9A71164B52
:1011F0001A783B1CDA71144BDA783B1C1A72124BCA
:101200009A783B1C5A72104B5A793B1C9A720E4BBF
:101210001A793B1CDA720B4B1B68DAB23B1C1A734F
:10122000C0463B1C26331A783B1C101C191CFFF7C8
:10123000BFFE41E7C04600E0C0463DE700800040F9
:10124000A800001008000010B0000010B0B582B077
:1012500000AF021C3960FB1D1A70FB1D1B787F2B31
:1012600032D93049FB1D1B781A1C0F231340083B51
:1012700098082C4AFB1D1B781C1C0F232340083B9D
:101280009B0806339B00D3185B68FA1D1278141C68
:1012900003222240D200FF24251C95402A1CD24361
:1012A0001A403B68DC00FF231C40FB1D1B781D1C03
:1012B00003232B40DB00251C9D402B1C1A43831D60
:1012C0009B00CB185A6029E0174BFA1D127852B2D6
:1012D00092081549F81D007840B28008C03080009F
:1012E0004158F81D0078041C03202040C000FF2452
:1012F000251C8540281CC04308403968CC00FF21CC
:101300000C40F91D09780D1C03212940C900251C3A
:101310008D40291C0143C0329200D150BD4602B01D
:10132000B0BDC04600ED00E000E100E080B582B055
:1013300000AF78607A680E4B9A4201D9012312E01F
:101340000C4B7A681202120A013A5A6001235B427E
:10135000181C1F21FFF77AFF064B00229A60054BED
:1013600007221A600023181CBD4602B080BDC0468B
:10137000FFFFFF0010E000E080B500AF054B1B68E9
:10138000002B04D0034B1B685A1E024B1A60BD464B
:1013900080BDC046B800001080B582B000AF786054
:1013A000FFF764FB0A4B1A687B68101C191C00F0DD
:1013B00049F8031C181CFFF7B9FF031C002B00D0D1
:1013C000FEE7044B00221A60BD4602B080BDC04655
:1013D00004000010BC00001080B582B000AF78603F
:1013E0007A68054B1A60C046034B1B68002BFBD183
:1013F000BD4602B080BDC046B800001080B582B0C6
:1014000000AF786004E0C046C046C046C046C04653
:101410007B681A1C511E8A41D2B2013B7B60002AB4
:10142000F1D1BD4602B080BD80B500AFFFF7A4FF8B
:10143000034B1B685A1C024B1A60BD4680BDC04658
:10144000BC000010002934D00123002210B48842CF
:101450002CD301242407A14204D2814202D20901E3
:101460001B01F8E7E400A14204D2814202D2490004
:101470005B00F8E7884201D3401A1A434C08A042A7
:1014800002D3001B5C0822438C08A04202D3001B3D
:101490009C082243CC08A04202D3001BDC08224354
:1014A000002803D01B0901D00909E3E7101C10BC78
:1014B0007047002801D00020C04307B4024802A1B1
:1014C0004018029003BDC046190000000029F0D06A
:1014D00003B5FFF7B9FF0EBC4243891A1847C0464F
:1014E0007047C04618010000B2020000B2020000BE
:1014F000B2020000B2020000B2020000B20200001C
:10150000B20200003E010000B2020000B202000080
:10151000B2020000B2020000B2020000B2020000FB
:10152000B202000064010000B2020000B20200003A
:10153000B2020000B2020000B2020000B2020000DB
:10154000B20200009A020000B2020000B2020000E3
:10155000B2020000B2020000B2020000B2020000BB
:10156000B20200009C010000B2020000B2020000C2
:10157000B2020000B2020000B2020000B20200009B
:10158000B2020000EA010000B2020000B202000054
:10159000B2020000B2020000B2020000B20200007B
:1015A000B2020000B2020000B2020000B20200006B
:1015B000B2020000B2020000B2020000B20200005B
:1015C000B202000002020000B2020000B2020000FB
:1015D000B2020000B2020000B2020000B20200003B
:1015E000B20200009A020000B2020000B202000043
:1015F000B2020000B2020000B2020000B20200001B
:10160000B20200002C020000B2020000B202000090
:10161000B2020000B2020000B2020000B2020000FA
:10162000B20200006C0200008E0A0000940A000062
:101630009A0A0000A00A0000A60A0000AC0A0000F6
:10164000B20A0000B80A0000BE0A0000C40A000086
:10165000CA0A0000D00A0000D60A0000DC0A000016
:08166000E20A0000E80A0000A4
:081668000D000000006CDC0223
:00000001FF
